:020000040800F2
:1000000000000120E50100087902000881020008D3
:10001000890200089102000899020008000000000F
:10002000000000000000000000000000A102000825
:10003000A902000800000000B1020008B90200088F
:1000400071020008710200087102000871020008C4
:100050007102000871020008D90E0008190F00088B
:1000600071020008710200087102000871020008A4
:100070007102000871020008710200087102000894
:100080007102000871020008710200087102000884
:100090007102000871020008710200087102000874
:1000A0007102000871020008710200087102000864
:1000B0007102000871020008710200087102000854
:1000C0007102000871020008710200087102000844
:1000D00071020008710E0008710200087102000828
:1000E0007102000871020008710200087102000824
:1000F0007102000871020008710200087102000814
:100100007102000871020008710200087102000803
:100110007102000871020008290E0008710200082F
:1001200071020008710200087102000871020008E3
:1001300000000000000000000000000000000000BF
:1001400000000000000000000000000000000000AF
:10015000000000000000000000000000000000009F
:10016000000000000000000000000000000000008F
:10017000000000000000000000000000000000007F
:10018000000000000000000000000000000000006F
:10019000000000000000000000000000000000005F
:1001A000000000000000000000000000000000004F
:1001B000000000000000000000000000000000003F
:1001C000000000000000000000000000000000002F
:1001D000000000000000000000000000000000001F
:1001E0005FF8E0F180B584B000AF0D4BBB600D4B04
:1001F0007B60BB683B6004E03B681A1D3A600022EC
:100200001A607A683B689A42F6D803F0BBFA02F0AB
:100210002BF9F86003F0ECFAF86803F007FB00BF75
:10022000BC090020080D002080B584B000AF0D4B44
:10023000FB600D4BBB600D4B7B60BB683B6007E018
:100240003B681A1D3A60FA68111DF96012681A605D
:100250007A683B689A42F3D803F0EEFA1037BD464D
:1002600080BD00BF7091000800000020BC09002084
:1002700080B400AFFEE700BF80B400AFFEE700BF70
:1002800080B400AFFEE700BF80B400AFFEE700BF60
:1002900080B400AFFEE700BF80B400AFFEE700BF50
:1002A00080B400AFFEE700BF80B400AFFEE700BF40
:1002B00080B400AFFEE700BF80B400AFFEE700BF30
:1002C00029020008590400083D080008B51D00086F
:1002D00080B500AF00F004F800F038F800BF80BD32
:1002E00080B586B000AF164B1B681846012101F09F
:1002F00025F9144B7B6010233B810423FB60002312
:100300003B740F4B1A683B1D1046194601F036F935
:100310000023FB750DE00A4B1968FB7D0A4AD25C8D
:10032000FB7D084611461A4601F07CF9FB7D01333E
:10033000FB75FB7D012BEED900BF1837BD4680BD94
:1003400000000020000801400800002080B582B0B5
:1003500000AF084B1B687B6004233B703B4606489C
:10036000194601F03DFD00F009F800BF0837BD4611
:1003700080BD00BFC4090020BC09002080B582B048
:1003800000AF0120012102F00FFF0323BB800423F3
:10039000FB713B1D1F48194602F086FC012000211D
:1003A00002F012FE0120012102F00EFE1A4B012282
:1003B0001A60194B00221A71174B08225A71164BFA
:1003C00001229A71144802F0CFFB134B02221A60EB
:1003D000114B00221A71104B0C225A710E4B012244
:1003E0009A710D4802F0C0FB07233B7000237B701D
:1003F0000023BB700123FB703B46184602F054FB00
:1004000006233B703B46184602F04EFB0837BD46BC
:1004100080BD00BF000C0140C809002080B582B03B
:1004200000AF786039607B68012B0BD13A684FF6DA
:10043000FF739A4206D1054801F0C4FC044B1A68C8
:10044000044B1A600837BD4680BD00BFBC090020C0
:1004500000000020C409002080B500AF01204FF645
:10046000FF71FFF7DBFF80BD80B582B000AF786021
:100470000B46FB707B68FA781A70786800F006F813
:100480007B6818460837BD4680BD00BF80B584B084
:1004900000AF78607B681B781A46134B53F8223004
:1004A0001846012102F080FE7B681B780F4AD35C5E
:1004B000FB737B681B780E4AD35CBB737B681B782D
:1004C0001A460C4B33F81230BB817B681B781A46F6
:1004D000094B53F8222007F10C031046194602F08D
:1004E000E3FB1037BD4680BD4C8F00081400002090
:1004F00018000020488F00080C00002080B483B052
:1005000000AF78607B681B780C4AD35C002B06D068
:100510007B681B78094A0021D154012308E07B68DD
:100520001B78074AD35C002B01D0022300E0002394
:1005300018460C37BD465DF8047B7047E009002083
:10054000E409002080B582B000AF154B1B78591C20
:10055000144B83FB01235A10CB17D21A13469B006E
:100560001344CA1AD2B20E4B1A700D4B1B78042BCF
:1005700013D10023FB710DE0FA790B4B53F82230B5
:10058000002B04D0FA79084B53F822309847FB79B6
:100590000133FB71FB79012BEED90837BD4680BDD5
:1005A000EC090020676666661C00002080B500AF7D
:1005B0002F4B1A782F4B1A702F4B1A782C4B1A701E
:1005C0002E4B1A6804231046194602F03DFC0346E0
:1005D0001A46294B1A702A4B1B88002B0CD0284B2B
:1005E0001B88013B9AB2264B1A80254B1B88002B97
:1005F00002D1244B01221A701F4B1A781C4B1B7816
:100600009A4234D11A4B1A781A4B1B789A422ED13F
:10061000194B1A781C4B1B789A4228D0164B1A7823
:1006200000239A4206D1144B1A78174B1A70144BB8
:10063000C8221A80104B1B781A460023002B14BFC7
:1006400000230123DBB29A4211D10B4B1A780E4BD7
:100650001A700B4B1B88002B03D00C4B01221A7015
:1006600002E0084B00221A70054B00221A8080BD60
:10067000D4090020D8090020D00900200C00002057
:10068000E8090020E4090020DC090020E00900203E
:1006900080B500AF304B5A78304B5A70304B5A7897
:1006A0002D4B5A702F4B5A684FF4807310461946E1
:1006B00002F0CAFB03461A46294B5A702A4B5B8844
:1006C000002B0CD0284B5B88013B9AB2264B5A80FA
:1006D000254B5B88002B02D1244B01225A70204B02
:1006E0005A781D4B5B789A4234D11B4B5A781B4B7E
:1006F0005B789A422ED11A4B5A781D4B5B789A42FE
:1007000028D0174B5A7800239A4206D1144B5A78B6
:10071000174B5A70144BC8225A80114B5B781A46FB
:100720000023002B14BF00230123DBB29A4211D116
:100730000B4B5A780E4B5A700B4B5B88002B03D037
:100740000C4B01225A7002E0084B00225A70064BF3
:1007500000225A8080BD00BFD4090020D8090020A3
:10076000D00900200C000020E8090020E409002046
:10077000DC090020E009002080B483B000AF78607D
:1007800039607B68012B4CD13A684FF6FF739A426F
:1007900047D10023002B14BF00230123DBB21A46EC
:1007A000224B1A700023002B14BF00230123DBB25D
:1007B0001A461E4B5A700023002B14BF002301233E
:1007C000DBB21A461A4B1A700023002B14BF002309
:1007D0000123DBB21A46164B5A700023002B14BFBC
:1007E00000230123DBB21A46124B1A700023002BA0
:1007F00014BF00230123DBB21A460E4B5A700023AC
:10080000002B14BF00230123DBB21A460A4B1A70D7
:100810000023002B14BF00230123DBB21A46064B32
:100820005A700C37BD465DF8047B7047D009002034
:10083000D4090020D8090020DC09002080B500AFD1
:1008400001204FF6FF71FFF797FF80BD80B582B0A2
:1008500000AF7860786800F0FDF8786800F06EF915
:10086000786800F0DFF9786800F050FA786800F0F6
:10087000C1FA00BF7B6818460837BD4680BD00BF7F
:1008800080B586B000AFF8600B467A60FB7201233A
:10089000FB757B68002B01D1012334E0FB7A042B2C
:1008A0002FD801A252F823F0BD080008CB08000899
:1008B000D9080008E7080008F5080008F868796812
:1008C00000F06EF80346FB751CE0F868796800F0EC
:1008D000DBF80346FB7515E0F868796800F048F925
:1008E0000346FB750EE0F868796800F0B5F9034639
:1008F000FB7507E0F868796800F022FA0346FB759B
:1009000000E000BFFB7D18461837BD4680BD00BF24
:1009100080B586B000AFF8600B467A60FB720123A9
:10092000FB757B68002B01D1012334E0FB7A042B9B
:100930002FD801A252F823F04D0900085B090008E6
:10094000690900087709000885090008F8687968CE
:1009500000F052F80346FB751CE0F868796800F077
:10096000BFF80346FB7515E0F868796800F02CF9CC
:100970000346FB750EE0F868796800F099F90346C4
:10098000FB7507E0F868796800F006FA0346FB7526
:1009900000E000BFFB7D18461837BD4680BD00BF94
:1009A00080B485B000AF786039600023BB7300234A
:1009B000FB7310E0FA7B0F4B53F82230002B07D16A
:1009C0000123BB73FA7B0B4B396843F8221005E017
:1009D000FB7B0133FB73FB7B032BEBD9BB7B002B36
:1009E00001D0002300E0012318461437BD465DF80E
:1009F000047B7047F009002080B485B000AF7860B8
:100A000039600023BB730023FB7311E0FA7B104BAA
:100A100053F822203B689A4207D10123BB73FA7B2B
:100A20000B4B002143F8221005E0FB7B0133FB73E5
:100A3000FB7B032BEAD9BB7B002B01D0002300E01A
:100A4000012318461437BD465DF8047B704700BF8C
:100A5000F009002080B485B000AF78600023FB73FC
:100A600007E0FA7B074B002143F82210FB7B0133A0
:100A7000FB73FB7B032BF4D91437BD465DF8047B75
:100A8000704700BFF009002080B485B000AF7860E7
:100A900039600023BB730023FB7310E0FA7B0F4B1C
:100AA00053F82230002B07D10123BB73FA7B0B4B89
:100AB000396843F8221005E0FB7B0133FB73FB7BB5
:100AC000032BEBD9BB7B002B01D0002300E00123DB
:100AD00018461437BD465DF8047B7047000A0020B5
:100AE00080B485B000AF786039600023BB73002309
:100AF000FB7311E0FA7B104B53F822203B689A42BB
:100B000007D10123BB73FA7B0B4B002143F8221062
:100B100005E0FB7B0133FB73FB7B032BEAD9BB7B3B
:100B2000002B01D0002300E0012318461437BD46F6
:100B30005DF8047B704700BF000A002080B485B0D8
:100B400000AF78600023FB7307E0FA7B074B0021BE
:100B500043F82210FB7B0133FB73FB7B032BF4D99F
:100B60001437BD465DF8047B704700BF000A0020C3
:100B700080B485B000AF786039600023BB73002378
:100B8000FB7310E0FA7B0F4B53F82230002B07D198
:100B90000123BB73FA7B0B4B396843F8221005E045
:100BA000FB7B0133FB73FB7B032BEBD9BB7B002B64
:100BB00001D0002300E0012318461437BD465DF83C
:100BC000047B7047100A002080B485B000AF7860C5
:100BD00039600023BB730023FB7311E0FA7B104BD9
:100BE00053F822203B689A4207D10123BB73FA7B5A
:100BF0000B4B002143F8221005E0FB7B0133FB7314
:100C0000FB7B032BEAD9BB7B002B01D0002300E048
:100C1000012318461437BD465DF8047B704700BFBA
:100C2000100A002080B485B000AF78600023FB7309
:100C300007E0FA7B074B002143F82210FB7B0133CE
:100C4000FB73FB7B032BF4D91437BD465DF8047BA3
:100C5000704700BF100A002080B485B000AF7860F4
:100C600039600023BB730023FB7310E0FA7B0F4B4A
:100C700053F82230002B07D10123BB73FA7B0B4BB7
:100C8000396843F8221005E0FB7B0133FB73FB7BE3
:100C9000032BEBD9BB7B002B01D0002300E0012309
:100CA00018461437BD465DF8047B7047200A0020C3
:100CB00080B485B000AF786039600023BB73002337
:100CC000FB7311E0FA7B104B53F822203B689A42E9
:100CD00007D10123BB73FA7B0B4B002143F8221091
:100CE00005E0FB7B0133FB73FB7B032BEAD9BB7B6A
:100CF000002B01D0002300E0012318461437BD4625
:100D00005DF8047B704700BF200A002080B485B0E6
:100D100000AF78600023FB7307E0FA7B074B0021EC
:100D200043F82210FB7B0133FB73FB7B032BF4D9CD
:100D30001437BD465DF8047B704700BF200A0020D1
:100D400080B485B000AF786039600023BB730023A6
:100D5000FB7310E0FA7B0F4B53F82230002B07D1C6
:100D60000123BB73FA7B0B4B396843F8221005E073
:100D7000FB7B0133FB73FB7B032BEBD9BB7B002B92
:100D800001D0002300E0012318461437BD465DF86A
:100D9000047B7047300A002080B485B000AF7860D3
:100DA00039600023BB730023FB7311E0FA7B104B07
:100DB00053F822203B689A4207D10123BB73FA7B88
:100DC0000B4B002143F8221005E0FB7B0133FB7342
:100DD000FB7B032BEAD9BB7B002B01D0002300E077
:100DE000012318461437BD465DF8047B704700BFE9
:100DF000300A002080B485B000AF78600023FB7318
:100E000007E0FA7B074B002143F82210FB7B0133FC
:100E1000FB73FB7B032BF4D91437BD465DF8047BD1
:100E2000704700BF300A002080B582B000AF0E4886
:100E3000012102F073FB0023FB710DE0FA790B4BEB
:100E400053F82230002B04D0FA79084B53F82230A3
:100E50009847FB790133FB71FB79032BEED900BF77
:100E60000837BD4680BD00BF00100040000A0020CA
:100E700080B582B000AF0023FB710DE0FA79144B0E
:100E800053F82230002B04D0FA79114B53F822305A
:100E90009847FB790133FB71FB79032BEED90D48A1
:100EA00040F2255102F052FC0A4840F66A1102F065
:100EB0004DFC084840F6460102F048FC054840F267
:100EC000266102F043FC00BF0837BD4680BD00BF6D
:100ED000100A00200038014080B582B000AF002326
:100EE000FB710DE0FA790B4B53F82230002B04D044
:100EF000FA79084B53F822309847FB790133FB719C
:100F0000FB79032BEED9012001F0C0FE00BF0837AA
:100F1000BD4680BD200A002080B582B000AF00230E
:100F2000FB710DE0FA790B4B53F82230002B04D003
:100F3000FA79084B53F822309847FB790133FB715B
:100F4000FB79032BEED9022001F0A0FE00BF083789
:100F5000BD4680BD300A002080B584B000AF786007
:100F60000B46FB707B68FA781A70FA78114B53F8CD
:100F700022301846012102F017F9FB780E4AD35CA3
:100F8000FB73FA780D4B33F81230BB81FB780C4AB7
:100F9000D35CBB73FA780B4B53F8222007F10C0398
:100FA0001046194601F080FE7B6818461037BD4692
:100FB00080BD00BF5C8F000834000020548F000803
:100FC000380000202400002080B582B000AF786097
:100FD0007B681B781A46084B53F822207B681B78E5
:100FE0001946064B33F811301046194601F060FFE0
:100FF0000837BD4680BD00BF24000020548F000884
:1010000080B582B000AF78607B681B781A46084BC9
:1010100053F822207B681B781946064B33F81130B1
:101020001046194601F052FF0837BD4680BD00BF8B
:1010300024000020548F000880B582B000AF786093
:101040007B681B781A461A4B53F822207B681B7862
:101050001946184B33F811301046194601F00EFFAF
:101060000346002B10D07B681B781A46104B53F8B0
:1010700022207B681B7819460E4B33F8113010463E
:10108000194601F023FF0FE07B681B781A46084BD6
:1010900053F822207B681B781946064B33F8113031
:1010A0001046194601F004FF0837BD4680BD00BF59
:1010B00024000020548F000880B584B000AF07F1F1
:1010C0000C0318460121FFF747FF07F108031846F4
:1010D0000221FFF741FF3B1D18460321FFF73CFFAC
:1010E00007F10C031846FFF78BFF07F108031846BA
:1010F000FFF786FF3B1D1846FFF782FF1037BD46FE
:1011000080BD00BF80B58CB000AF786013460A4642
:101110007A803B807A68344B9A4203D1012387F866
:101120002F3008E07A68314B9A4203D1002387F8C8
:101130002F3000E055E097F82F30002B01D010231E
:1011400000E020231846012102F04CF878680121C4
:1011500002F05AF978680121012202F01DF97B881A
:1011600078681946002202F03BF93B8878681946F6
:1011700002F0C6F97868002102F066F9786800216B
:1011800002F082F97868002102F09EF97868012166
:1011900002F0E2F836233B730123FB730F237B73CA
:1011A0000F23BB7307F10C03184601F07DFC07F118
:1011B0001003184601F046FFBB69BB62BA6A0C4BCC
:1011C000A3FB02139B09BB627B883A8802FB03F3F3
:1011D0007B627A6ABB6AB2FBF3F39AB2054B1A8060
:1011E00000BF3037BD4680BD0010004000140040F5
:1011F000D34D62104C0A002080B582B000AF0B4680
:101200003A600246FA71BB80FB7983F00103DBB2DE
:10121000002B0CD0134B4FF6FF721A80124B1B6839
:101220001846FFF7EDFE104B00221A6016E00F4B38
:101230001B88BA88B2FBF3F39BB29AB2094B1A80AF
:10124000084B1B889BB2094A128802FB03F39AB22F
:10125000074B1A80044B3A681A6000BF0837BD4636
:1012600080BD00BF3C000020400A00204C0A002046
:10127000440A002080B500AF134B1B881BB2002B23
:1012800000DA1FE0104B1B889BB2013B9AB20E4B59
:101290001A800D4B1B881BB2002B12DC0B4B1A88DB
:1012A0000B4B1B88B2FBF3F39BB29AB2064B1A802E
:1012B000084B1B68002B04D0064B1B681846FFF731
:1012C000BBFE00BF80BD00BF3C000020440A0020E0
:1012D0004C0A0020400A002080B400AF064B1B6877
:1012E000002B04D0044B1B685A1E034B1A6000BF2E
:1012F000BD465DF8047B7047480A002080B483B087
:1013000000AF78600B467B807B88013B9AB27B689C
:101310001A807B6800229A847B68002283F826204A
:101320007B6893F82630012202FA03F3DAB27B6875
:1013300083F827207B68002283F830207B681846DA
:101340000C37BD465DF8047B704700BF80B584B0A4
:1013500000AF78607B681B883F4AD35CFB737B6877
:101360001B881946FA7B3D4B49000A4453F822304A
:101370001846012101F018FF7B681B881946FA7B8B
:10138000374B49000A4453F822301846012101F036
:101390000BFF7B681B881946FA7B324B49000A44D5
:1013A00053F822301846012101F0FEFE1823FB728B
:1013B0000323BB727B681B881946FA7B2A4B4900C2
:1013C0000A4433F812303B817B681B881946FA7B4C
:1013D000264B49000A4453F8222007F1080310461F
:1013E000194601F061FC7B681B881946FA7B204B8B
:1013F00049000A4433F812303B817B681B88194648
:10140000FA7B1C4B49000A4453F8222007F10803D9
:101410001046194601F048FC0423FB727B681B88C8
:101420001946FA7B144B49000A4433F812303B81C9
:101430007B681B881946FA7B104B49000A4453F815
:10144000222007F108031046194601F02DFC00BFC9
:101450001037BD4680BD00BF6C8F000868000020BB
:1014600088000020A8000020708F0008580000208D
:10147000808F000898000020788F000878000020F6
:1014800080B588B000AF786039607B681B881A46E9
:10149000274B53F822307A6812881146254A52F8B1
:1014A00021201046012198473B681B883B833B68FD
:1014B0005B88BB823B689B887B823B68DB88BB8305
:1014C0003B681B893B823B685B89BB813B689B898E
:1014D0007B833B68DB89FB813B681B8AFB827B68E3
:1014E0001B881A46144B53F8222007F10C031046B0
:1014F000194601F095FE7B681B881A460E4B53F87F
:1015000022301846012101F0CFFE3B68DB89B3F59C
:10151000827F08D13B685B89002B00D003E07868AC
:10152000FFF714FF00BF002318462037BD4680BDDB
:1015300050000020480000204000002080B483B00C
:1015400000AF78600B46FB70FB78032B01D90123B9
:101550000EE07B68FA7883F826207B6893F82630C3
:10156000012202FA03F3DAB27B6883F82720002312
:1015700018460C37BD465DF8047B704780B584B0D3
:1015800000AF786039603B681B7B022B01D90123D7
:1015900044E03B681B7BFB73FB7B3A68126879680D
:1015A0009B000B445A60FA7B3B6899887B68083241
:1015B00023F81210FA7B3B6899687B68063243F87F
:1015C0002210FA7B7B68063253F82230184601213C
:1015D00001F0EAFD1023FB72FA7B7B68083233F8D6
:1015E00012303B810123BB72FB7B7A689B00134462
:1015F0005A6807F108031046194601F055FB7B684D
:101600009B8C9AB2FB7B0133012101FA03F39BB25D
:1016100013439BB29AB27B689A8400231846103712
:10162000BD4680BD80B582B000AF786013460A46E3
:10163000FA70BB707B6893F82730BA789A4201D36E
:10164000012315E0BB787A681344FA7883F82820E0
:10165000FB78002B0BD17B68BA7883F832207B684B
:10166000002283F830207868002100F0AFF80023D2
:1016700018460837BD4680BD80B582B000AF78609F
:101680000B46FB707B6893F83030002B01D00223AF
:1016900011E07B68FA7883F83020786800F010F861
:1016A0000346002B0CBF00230123DBB2002B01D02B
:1016B000032300E0002318460837BD4680BD00BF65
:1016C00080B485B000AF78600023BB730023FB7348
:1016D0000FE0FB7B7A68134493F828207B6893F82B
:1016E00030309A4202D10123BB7305E0FB7B01330A
:1016F000FB73FB7B072BECD9BB7B002B05D07B68F6
:10170000FA7B83F83120002300E0032318461437C6
:10171000BD465DF8047B704780B584B000AF78604B
:101720000B46FB707B689B8C1A464FF6FE7313408A
:101730007A6892F826200132012101FA02F2023A77
:10174000934201D001233CE07B6893F83030FA7873
:101750009A4200D0FEE77B6893F83130FB73002398
:10176000BB7327E0FB7B03F00103002B0ED1BB7B97
:101770007A689B0013445A68B97B7B68083133F858
:1017800011301046194601F0A1FB0DE0BB7B7A68D1
:101790009B0013445A68B97B7B68083133F81130D9
:1017A0001046194601F084FBFB7B5B10FB73BB7B8F
:1017B0000133BB737B6893F82630BA7B9A42D1D34E
:1017C000002318461037BD4680BD00BF80B584B0E9
:1017D00000AF78600B46FB707B689B8C1A464FF617
:1017E000FE7313407A6892F826200132012101FA33
:1017F00002F2023A934201D001233CE07B6893F865
:101800003030FA789A4200D0FEE77B6893F83230A5
:10181000FB730023BB7327E0FB7B03F00103002B6A
:101820000ED1BB7B7A689B0013445A68B97B7B68F6
:10183000083133F811301046194601F047FB0DE02E
:10184000BB7B7A689B0013445A68B97B7B6808317C
:1018500033F811301046194601F02AFBFB7B5B1070
:10186000FB73BB7B0133BB737B6893F82630BA7B79
:101870009A42D1D3002318461037BD4680BD00BF21
:1018800080B582B000AF786013460A46FA703B809C
:101890007B6893F83030FA789A4200D0FEE700BFB8
:1018A0007B681B881A461D4B53F8223018460221CC
:1018B00001F036FD0346002B14BF00230123DBB2E9
:1018C000002BEDD17B681B881A46144B53F822205D
:1018D0003B881046194601F007FD00BF7B681B8856
:1018E0001A460E4B53F822301846012101F018FD1C
:1018F0000346002B14BF00230123DBB2002BEDD1E4
:101900007B681B881A46054B53F82230184601F0B5
:10191000F9FC034618460837BD4680BD400000204C
:1019200080B584B000AF78607B681B88134AD35CB5
:10193000FB737B681B881946FA7B114B49000A44EC
:1019400053F822207B681B881846F97B0D4B40001A
:10195000014433F811301046194601F075FA034678
:10196000012B14BF00230123DBB2002B01D0012384
:1019700000E0002318461037BD4680BD6C8F00087C
:1019800078000020788F000880B483B000AF7860C2
:101990000B46FB70FB78013BDAB27B681A707B6800
:1019A00018460C37BD465DF8047B704780B588B09B
:1019B00000AF786039607B681B78042B7CD87B682B
:1019C0001B781A463E4B53F822301846012101F08D
:1019D000EBFB7B681B781A463A4B53F822301846CB
:1019E000012101F0E1FB7B681B78002B0AD17B68A9
:1019F0001B781A46344B53F822301846012101F067
:101A0000D3FB09E07B681B781A462F4B53F8223032
:101A10001846012101F0E6FB7B681B781A462B4B28
:101A200033F81230BB830323BB771823FB777B6823
:101A30001B781A46264B53F8222007F11C03104648
:101A4000194601F031F97B681B781A46214B33F8AF
:101A50001230BB830323BB770423FB777B681B789F
:101A60001A461D4B53F8222007F11C031046194655
:101A700001F01AF90C23FB820023BB823B68FB6058
:101A800000237B8200233B8200233B837B681B78FF
:101A90001A46124B53F8222007F10C031046194640
:101AA00001F04CFD7B681B781A460C4B53F8223032
:101AB0001846012101F0FCFD2037BD4680BD00BF66
:101AC000A08F0008B48F0008C88F0008888F000816
:101AD000B8000020948F0008CC000020E000002017
:101AE00080B582B000AF78600B46FB7000BF7B68AA
:101AF0001B781A460E4B53F822301846802101F00D
:101B000009FE0346002B14BF00230123DBB2002B88
:101B1000EDD17B681B781A46054B53F82220FB78E1
:101B20001046194601F0E4FD0837BD4680BD00BFF0
:101B3000E000002080B483B000AF78600B46FB70FB
:101B4000FB7803F00103002B03D0194B7A681A606D
:101B500007E0174B1A687B689A4202D1144B0022A7
:101B60001A60FB7803F00203002B03D0114B7A6854
:101B70001A6007E00F4B1A687B689A4202D10D4B3E
:101B800000221A60FB7803F00403002B03D00A4BF9
:101B90007A681A6007E0084B1A687B689A4202D19B
:101BA000054B00221A600C37BD465DF8047B704778
:101BB000500A0020580A0020540A002080B586B040
:101BC00000AFF860B9607A60FB68012B02D0022B8D
:101BD0001DD039E0204B1B68002B02D14FF0FF33A2
:101BE00036E000237B610DE01B4B1A687B69B96806
:101BF0000B441B785BB210461946FFF771FF7B69F7
:101C000001337B617A697B689A42EDDB1FE0134BFD
:101C10001B68002B02D14FF0FF3319E000237B61DA
:101C20000DE00E4B1A687B69B9680B441B785BB2F8
:101C300010461946FFF754FF7B6901337B617A69CF
:101C40007B689A42EDDB02E04FF0FF3300E07B68F7
:101C500018461837BD4680BD500A0020540A00209F
:101C600080B500AFFFF728FA0920012101F09CFAA6
:101C70001D48012101F038F91C4B1B681846012151
:101C800048F6A042FFF73EFA194B1B6801204FF4BB
:101C9000FA711A46FFF7B0FA16484FF41651FFF7DB
:101CA00085FE14480121FFF745FF13484FF41651F4
:101CB000FFF77CFE114B1B7811481946114AFEF7BD
:101CC000DFFD0E4B1B780E4819460F4AFEF7D8FD74
:101CD0000A4B1B780A4819460C4AFEF7D1FD4FF40F
:101CE000A06000F0CFFE80BD00013000F4000020B5
:101CF000FC000020DC0A0020E00A0020F8000020A0
:101D0000E40A002075120008D912000845050008F1
:101D100080B582B000AF786039607B68012B2FD12D
:101D20003A684FF6FF739A422AD117480121FFF70C
:101D3000E5FA16480221FFF7E1FA15480021FFF7FE
:101D40000BF914480121FFF707F913480321FFF7A6
:101D500003F912480221FFF7FFF811480021FEF7AE
:101D600083FB10480121FEF77FFB0F480121FFF79D
:101D70000BFE0E480221FFF707FE0D48FEF766FD39
:101D80000837BD4680BD00BF5C0A0020900A0020D5
:101D9000C40A0020C80A0020CC0A0020D00A002073
:101DA000D40A0020D80A0020DC0A0020E00A002023
:101DB000E40A002080B500AF01204FF6FF71FFF765
:101DC000A7FF80BD80B483B000AF78607B6800223D
:101DD0001A607B6818460C37BD465DF8047B704777
:101DE00080B582B000AF786039600820012101F031
:101DF000DBF9204801F014F81E4B01221A801D4B1C
:101E00004822DA701B4B01229A701B48194900F0D6
:101E10004BFF184B02221A80164B2822DA70154B02
:101E200001229A701448134900F03EFF3B685A683B
:101E30007B681A603B681A787B681A71786800F0D2
:101E40006BF87B681A687B681B7910461946FFF7A8
:101E500013FC786800F014F8786800F0DFF978680F
:101E60003E21064A082300F0E1F800BF0837BD46CE
:101E700080BD00BFFC0A0020000C014000010020D2
:101E800080B582B000AF78607B681A687B681B7988
:101E900010461946FFF79AFC7B681A687B681B7925
:101EA00010461946FFF738FC7B681A687B681B7977
:101EB00010461946FFF78AFC7868332100F088FA4B
:101EC000786800F005F800BF0837BD4680BD00BF48
:101ED00080B582B000AF78607B681A687B681B7938
:101EE00010461946FFF718FC786800F0A7FA7B68DF
:101EF0001A687B681B79104619463022FFF7C0FC30
:101F00007B681A687B681B7910461946FFF75EFCF0
:101F100000BF0837BD4680BD80B582B000AF786095
:101F2000124B08221A80114B00229A800F4B00227C
:101F30005A800E4B00221A810C4B00229A810B4BC7
:101F40004FF48272DA81094B00225A81074B4FF419
:101F500000721A82054B0722DA807B681B681846DC
:101F60000249FFF78DFA0837BD4680BDE80A002018
:101F700080B582B000AF78600B46FB707B681A6852
:101F80007B681B7910461946FFF7C6FB786800F09E
:101F900055FA7B6819687B681A79FB789BB208460A
:101FA00011461A46FFF76CFC7B681A687B681B7940
:101FB00010461946FFF70AFC00BF0837BD4680BD32
:101FC00080B582B000AF786013460A46FA70BB70E5
:101FD0007B681A687B681B7910461946FFF79CFBE3
:101FE000786800F02BFA7B6819687B681A79FB78AF
:101FF0009BB2084611461A46FFF742FC7B681968F7
:102000007B681A79BB789BB2084611461A46FFF7DF
:1020100037FC7B681A687B681B7910461946FFF706
:10202000D5FB00BF0837BD4680BD00BF80B586B078
:1020300000AFF8607A600A46FA72BB72FB681A68F1
:10204000FB681B7910461946FFF766FBF86800F03D
:10205000F5F9FB681968FB681A79FB7A43F04003CD
:10206000DBB2084611461A46FFF70AFC0023FB754F
:102070000FE0FB681968FB681A79FB7D78680344F8
:102080001B78084611461A46FFF7FAFBFB7D013321
:10209000FB75FA7DBB7A9A42EBD3FB681A68FB6842
:1020A0001B7910461946FFF791FB00BF1837BD4654
:1020B00080BD00BF80B584B000AF78600B46FB7078
:1020C0007B681A687B681B7910461946FFF724FB6A
:1020D000786800F0B3F97B6819687B681A79FB7837
:1020E00063F07F03DBB2084611461A46FFF7C8FBD0
:1020F0007B681A687B681B7910461946FF22FFF738
:10210000BFFB0346FB737B681A687B681B7910462C
:102110001946FFF75BFBFB7B18461037BD4680BDB9
:1021200090B587B000AFF8607A600A46FA72BB7269
:10213000FB681A68FB681B7910461946FFF7ECFA32
:10214000F86800F07BF9FB681968FB681A79FB7A7C
:1021500063F03F03DBB2084611461A46FFF790FBD7
:102160000023FB7511E0FB7D7A68D418FB681A68C0
:10217000FB681B7910461946FF22FFF781FB0346D7
:10218000DBB22370FB7D0133FB75FA7DBB7A9A428B
:10219000E9D3FB681A68FB681B7910461946FFF7FC
:1021A00015FB7B681B7818461C37BD4690BD00BFE9
:1021B00080B584B000AF78600B46FB707B681A680E
:1021C0007B681B7910461946FFF7A6FA786800F07D
:1021D00035F97B6819687B681A79FB7863F03F03EF
:1021E000DBB2084611461A46FFF74AFB7B681A68BD
:1021F0007B681B7910461946FF22FFF741FB034617
:10220000FB737B681A687B681B7910461946FFF7D9
:10221000DDFAFB7B18461037BD4680BD80B582B025
:1022200000AF78600C2378680B211A46FFF7C8FED0
:10223000002378680C211A46FFF7C2FE1023786845
:102240000D211A46FFF7BCFEA72378680E211A4617
:10225000FFF7B6FE622378680F211A46FFF7B0FE3B
:102260002D23786810211A46FFF7AAFE3B237868D1
:1022700011211A46FFF7A4FE1323786812211A468B
:10228000FFF79EFE2223786813211A46FFF798FE77
:10229000F823786814211A46FFF792FE0023786825
:1022A0000A211A46FFF78CFE6223786815211A4628
:1022B000FFF786FEB623786821211A46FFF780FED5
:1022C0001023786822211A46FFF77AFE18237868CF
:1022D00018211A46FFF774FE1D23786819211A4643
:1022E000FFF76EFE1C2378681A211A46FFF768FE76
:1022F000C72378681B211A46FFF762FE002378681F
:102300001C211A46FFF75CFEB02378681D211A468F
:10231000FFF756FEEA23786823211A46FFF750FE9E
:102320002A23786824211A46FFF74AFE002378689A
:1023300025211A46FFF744FE1F23786826211A46F6
:10234000FFF73EFE5923786829211A46FFF738FE29
:10235000882378682C211A46FFF732FE31237868EB
:102360002D211A46FFF72CFE092378682E211A46E4
:10237000FFF726FE0E23786803211A46FFF720FE9A
:102380000023786800211A46FFF71AFE06237868B2
:1023900002211A46FFF714FE0423786807211A4623
:1023A000FFF70EFE0523786808211A46FFF708FE9E
:1023B0000023786809211A46FFF702FEFF23786898
:1023C00006211A46FFF7FCFD00BF0837BD4680BD59
:1023D00080B483B000AF78600B467B807B885A1E48
:1023E0007A80002B0CBF00230123DBB2002BF5D138
:1023F00000BF0C37BD465DF8047B704780B485B0E4
:1024000000AF78600B467B800023FB600DE000236B
:10241000BB6002E0BB680133BB60BA6840F2FA43BC
:102420009A42F7DDFB680133FB607A88FB689A42C9
:10243000EDDC1437BD465DF8047B704780B582B093
:1024400000AF786000BF7B681B681846FFF768FA2A
:102450000346012B14BF00230123DBB2002BF2D172
:1024600000BF0837BD4680BD80B500AF3D4B082298
:102470001A803C4B00229A803A4B00225A80394BFA
:1024800000221A81374B00229A81364B4FF4827218
:10249000DA81344B00225A81324B4FF400721A8297
:1024A000304B0722DA80304BC8221A702F4B0122A2
:1024B0001A700BE02D4B1B782C4A11782A4AD15404
:1024C0002A4B1B780133DAB2284B1A70274B1B7842
:1024D000C82BEFD9FFF7C4FB25482249FEF7D0FFF0
:1024E000FDF7F6FE234B1B78012B02D0022B07D001
:1024F00037E01D4800F046F81F48FEF765FD30E064
:102500001E4800F0BFF81D4B93F8CB30DBB25BB236
:10251000002B03DA1848FEF757FD02E01648FEF7D5
:102520006FFD124B00221A700AE0104B1B78134A01
:102530000021D1540D4B1B780133DAB20B4B1A70CA
:102540000A4B1B78CA2BF0D900BF0D48FDF7D6FF08
:102550000346002B14BF00230123DBB2002BF4D170
:1025600000BFBFE7000B0020180B0020140B002059
:102570005C0A002008010020CC0A0020E40B0020A7
:10258000D40A002080B584B000AF78607B681B78E7
:10259000FB73344800210222FFF712FD3148C821A5
:1025A000FFF72CFF2F483621FFF7E2FC2D483B2197
:1025B000FFF7DEFC0C20022100F01AFA08200121AE
:1025C00000F016FA284B00221A70284B7A685A60DD
:1025D000FB7B3F2B15D8264B1A68264B1B781046E1
:1025E0001946254AFEF74CF9FB7B0133DBB21D4847
:1025F0003F217A68FFF71AFD1A483521FFF7B8FC2A
:102600002CE01B4B1A681B4B1B78104619461B4AC3
:10261000FEF736F913483F217A684023FFF706FD9D
:10262000FB7B3F3BDAB2114B1A707B6803F140022F
:102630000E4B5A600D4B1A78114BA3FB02135B092A
:10264000DAB20A4B1A72094B1B7A002B02D1074BE4
:1026500001225A7203483521FFF78AFC1037BD4624
:1026600080BD00BFBC090020B00C0020B40C0020CD
:102670000400002009010020F927000805270008B0
:102680008988888880B582B000AF786017480021BB
:102690000022FFF795FC15486421FFF7AFFE1348B1
:1026A0003621FFF765FC11483A21FFF761FC08204D
:1026B000022100F09DF90820012100F099F90C4B4E
:1026C00001221A700B4B7A685A600B4B1A680B4B3D
:1026D0001B78104619460A4AFEF7D2F803483421FF
:1026E000FFF746FC00BF0837BD4680BDBC0900208F
:1026F000B00C0020C00C00200400002009010020C4
:102700000527000880B500AF012000F09BFA0346C2
:10271000002B0CBF00230123DBB2002B53D00C2075
:10272000012100F065F9294B1A68294B1B781046E6
:102730001946284AFEF7ECF8274B1B78012B36D1B7
:10274000224B1A68254B1B7810461946244AFEF77F
:1027500097F800BF23483B21FFF72AFD034603F00B
:102760007F03012BCCBF00230123DBB2002BF1D16F
:102770001C483F21FFF79EFC03461A461A4B1A726B
:10278000194B1B7A0233DAB2174B1A70164B5B687F
:10279000154A127A1A70144B5B685A1C124B5A6015
:1027A000114B1B7A1148194601F006F908E0074B56
:1027B0001A680A4B1B78104619460D4AFEF760F856
:1027C0000C48FEF701FC00BF80BD00BF04000020E4
:1027D0000901002005270008B00C00200A01002094
:1027E000A9280008BC090020C00C0020DC8F0008CC
:1027F00029290008D00A002080B500AF012000F090
:1028000021FA0346002B0CBF00230123DBB2002B6F
:1028100032D01A4B1B78012B07D1194B5A68184B31
:102820001B7818483F21FFF77BFC174B1A68174BA2
:102830001B7810461946164AFEF76AF8124B1A68BA
:10284000124B1B7810461946124AFEF761F80E4BE0
:102850001A68114B1B7810461946104AFEF758F8B3
:10286000094B1A680C4B1B78104619460C4AFEF7A8
:102870004FF80C48FEF7A8FB00BF80BDB00C00204D
:10288000C00C0020BC090020040000200901002029
:10289000F9270008052700080A0100202929000857
:1028A000A9280008D00A002080B500AF022000F05F
:1028B000C9F90346002B0CBF00230123DBB2002B18
:1028C00024D0134B1B78012B20D1124B5B6812488C
:1028D0003F211A463B23FFF723FC0E4B1B783B3B63
:1028E000DAB20C4B1A700B4B5B6803F13B02094BDD
:1028F0005A60084B1B783B2B08D8084B1A68084BCA
:102900001B7810461946074AFEF702F800BF80BD43
:10291000B00C0020C00C0020BC09002004000020E6
:102920000A010020A928000880B500AF022000F0AD
:1029300089F90346002B0CBF00230123DBB2002BD7
:1029400043D0234B1B78002B3FD1224B5B7A002BCB
:102950001AD0214B1A68214B1B7810461946204A81
:10296000FDF7D6FF1C4B1A681E4B1B781046194604
:102970001D4AFDF785FF174B5A68164B1B781B48FD
:102980003F21FFF753FB20E0124B5B6817483F21C4
:102990001A463C23FFF74AFB0E4B5B6803F13C02EF
:1029A0000C4B5A600B4B1B783C3BDAB2094B1A704C
:1029B000084B1B7A013BDAB2064B1A72054B1B7AA5
:1029C000002B02D1034B01225A7200BF80BD00BF11
:1029D000B00C0020B40C0020040000200A010020EC
:1029E0002929000809010020F9270008BC09002056
:1029F00080B582B000AF03463960FB71064B3A6880
:102A00001A60054BFA795A71034800F0ADF800BF1F
:102A10000837BD4680BD00BFC809002080B584B01E
:102A200000AF7860144B1B68002B02D1124B134A85
:102A30001A60114B1B68FB607B68033323F00303B0
:102A40007B600D4B1A687B681A440D4B9A4207D97C
:102A500000F0ACFF03460C221A604FF0FF3306E093
:102A6000054B1A687B681A44034B1A60FB681846CA
:102A70001037BD4680BD00BFCC0C0020080D0020E3
:102A800000FC002080B483B000AF7860054A7B680A
:102A900043F0BF6343F40033D3600C37BD465DF8A9
:102AA000047B704700ED00E080B487B000AF786031
:102AB00000237B6100233B610F23FB607B68DB7895
:102AC000002B38D0264BDB68DB4303F4E0631B0AA2
:102AD0007B617B69C3F104033B617B69FA6822FA7D
:102AE00003F3FB607B685B781A463B6902FA03F3E9
:102AF0007B617B689B781A46FB6813407A691343B5
:102B00007B617B691B017B6116497B681B787A6955
:102B1000D2B20B4483F80023124B7A681278520920
:102B2000D2B27968097801F01F01012000FA01F1A1
:102B300043F822100EE00B4B7A6812785209D2B299
:102B40007968097801F01F01012000FA01F12032B3
:102B500043F822101C37BD465DF8047B704700BF68
:102B600000ED00E000E100E080B485B000AF7860E7
:102B70000023FB60324BFB607B689B79002B4DD0C0
:102B80002F4B2F4A11687A681268D2430A401A60A4
:102B90002B4B2B4A51687A681268D2430A405A601C
:102BA0007B681B79FA681344FB60FB68FA6811685C
:102BB0007A6812680A431A60214B214A91687A6840
:102BC0001268D2430A409A601D4B1D4AD1687A6848
:102BD0001268D2430A40DA607B685B79102B0ED111
:102BE000174B174A91687A6812680A439A60144B27
:102BF000134AD1687A6812680A43DA601BE0104B06
:102C0000FB607B685B79FA681344FB60FB68FA68D9
:102C100011687A6812680A431A600CE07B681B79B5
:102C2000FA681344FB60FB68FA6811687A681268F6
:102C3000D2430A401A601437BD465DF8047B7047E2
:102C40000004014080B485B000AF78600023FB73BE
:102C50000023BB600C4B1A687B681340BB600A4BB7
:102C60005A697B681340002B05D0BB68002B02D04B
:102C70000123FB7301E00023FB73FB7B1846143731
:102C8000BD465DF8047B70470004014080B483B00A
:102C900000AF7860034B7A685A610C37BD465DF827
:102CA000047B70470004014080B489B000AF7860B5
:102CB00039600023FB6100233B610023BB610023DB
:102CC000FB6000237B610023BB603B68DB7803F083
:102CD0000F03FB613B68DB7803F01003002B04D08B
:102CE0003B689B78FA691343FB613B681B88DBB246
:102CF000002B44D07B681B687B610023BB6138E0FC
:102D0000BB69012202FA03F3FB603B681B881A4689
:102D1000FB6813403B613A69FB689A4226D1BB6964
:102D20009B00FB60FB680F2202FA03F3BB60BB68E9
:102D3000DB437A6913407B61FB68FA6902FA03F3AB
:102D40007A6913437B613B68DB78282B05D1BB692B
:102D500001229A407B685A6108E03B68DB78482B87
:102D600004D1BB6901229A407B681A61BB690133B7
:102D7000BB61BB69072BC3D97B687A691A603B6862
:102D80001B88FF2B46D97B685B687B610023BB6196
:102D90003AE0BB690833012202FA03F3FB603B68A7
:102DA0001B881A46FB6813403B613A69FB689A42EC
:102DB00027D1BB699B00FB60FB680F2202FA03F37B
:102DC000BB60BB68DB437A6913407B61FB68FA69CF
:102DD00002FA03F37A6913437B613B68DB78282BA3
:102DE00005D1BB69083301229A407B685A613B6870
:102DF000DB78482B05D1BB69083301229A407B68F8
:102E00001A61BB690133BB61BB69072BC1D97B6800
:102E10007A695A602437BD465DF8047B704700BF6D
:102E200080B483B000AF78607B684FF6FF721A8081
:102E30007B6802229A707B680422DA700C37BD46E8
:102E40005DF8047B704700BF80B485B000AF786048
:102E50000B467B800023FB737B689A687B8813405A
:102E6000002B02D00123FB7301E00023FB73FB7BEB
:102E700018461437BD465DF8047B704780B485B0B2
:102E800000AF78600B467B800023FB737B68DA68B9
:102E90007B881340002B02D00123FB7301E0002349
:102EA000FB73FB7B18461437BD465DF8047B704707
:102EB00080B483B000AF78600B467B807A887B68F3
:102EC0001A610C37BD465DF8047B704780B483B04F
:102ED00000AF78600B467B807A887B685A610C373C
:102EE000BD465DF8047B704780B487B000AF786062
:102EF0000B46FB7000233B610023FB6000237B61DA
:102F00000023BB607B68002B03DA2E4BDB697B61FF
:102F100002E02C4B5B687B617B6803F470231B0C25
:102F2000BB607B689BB23B617B6803F44013B3F5E5
:102F3000401F0AD17B6923F070637B61214B214ADA
:102F4000526822F070625A6021E07B6803F48013BB
:102F5000002B0ED0BB68032202FA03F3FB60FB6870
:102F6000DB437A6913407B617B6943F070637B616B
:102F70000DE07B685B0D1B013A6902FA03F3DB434A
:102F80007A6913407B617B6943F070637B61FB78F6
:102F9000002B08D07B685B0D1B013A6902FA03F332
:102FA0007A6913437B617B68002B03DA054B7A69EE
:102FB000DA6102E0034B7A695A601C37BD465DF85E
:102FC000047B70470000014090B484B000AF02461B
:102FD0000B46FA71BB710023FB60BB7903F003035E
:102FE0009B000F2202FA03F3FB60154BBA7992089B
:102FF000D2B21349B8798008C0B2023051F820002B
:10300000F968C9430140023243F822100C4BBA79E7
:103010009208D2B20A49B8798008C0B2023051F899
:103020002000FC79B97901F00301890004FA01F16B
:103030000143023243F822101037BD4690BC70475E
:103040000000014080B487B000AF786000237B614E
:1030500000233B610023FB600023BB604D4B5B689A
:1030600003F00C037B617B69042B07D0082B09D08C
:10307000002B34D17B68484A1A6034E07B68464AAA
:103080001A6030E0434B5B6803F470133B61414BC3
:103090005B6803F48033FB603B699B0C02333B614C
:1030A000FB68002B06D13B693C4A02FB03F27B68BC
:1030B0001A6013E0374B5B6803F40033002B06D033
:1030C0003B69364A02FB03F27B681A6006E03B6903
:1030D000314A02FB03F27B681A6004E003E07B687C
:1030E0002D4A1A6000BF2B4B5B6803F0F0037B6135
:1030F0007B691B097B612A4A7B6913441B78DBB21D
:10310000BB607B681A68BB68DA407B685A60214BF9
:103110005B6803F4E0637B617B691B0A7B61204A87
:103120007B6913441B78DBB2BB607B685A68BB6861
:10313000DA407B689A60174B5B6803F460537B61ED
:103140007B69DB0A7B61164A7B6913441B78DBB21F
:10315000BB607B685A68BB68DA407B68DA600D4BFD
:103160005B6803F440437B617B699B0B7B610D4A89
:103170007B6913441B78DBB2BB607B68DA68BB6891
:10318000B2FBF3F27B681A611C37BD465DF8047B25
:10319000704700BF0010024000127A0000093D0095
:1031A0000C0100201C01002080B483B000AF7860C7
:1031B0000B46FB70FB78002B06D0094B084A91693F
:1031C0007A680A439A6106E0054B054A91697A6874
:1031D000D2430A409A610C37BD465DF8047B7047C4
:1031E0000010024080B483B000AF78600B46FB70E3
:1031F000FB78002B06D0094B084AD1697A680A434C
:10320000DA6106E0054B054AD1697A68D2430A4083
:10321000DA610C37BD465DF8047B70470010024050
:1032200080B485B000AF786039600023FB817B6893
:103230001B88FB81FB8903F44153FB813B681A889F
:103240003B685B8813439AB23B689B8813439AB2EE
:103250003B68DB8813439AB23B681B8913439AB2DD
:103260003B685B8913439AB23B689B8913439AB2CC
:103270003B68DB8913439AB2FB891343FB817B686C
:10328000FA891A807B689B8B9BB223F400639AB205
:103290007B689A833B681A8A7B681A821437BD461A
:1032A0005DF8047B704700BF80B483B000AF7860E6
:1032B0000B46FB70FB78002B08D07B681B889BB209
:1032C00043F040039AB27B681A8007E07B681B8852
:1032D0009BB223F040039AB27B681A800C37BD463C
:1032E0005DF8047B704700BF80B483B000AF7860A6
:1032F0000B467B807B687A889A810C37BD465DF8E7
:10330000047B704780B483B000AF78607B689B8992
:103310009BB218460C37BD465DF8047B704700BF72
:1033200080B485B000AF78600B467B800023FB73D0
:103330007B681B899AB27B8813409BB2002B02D01A
:103340000123FB7301E00023FB73FB7B184614375A
:10335000BD465DF8047B704780B483B000AF7860F1
:103360000B46FB70FB78002B08D07B681B889BB258
:1033700043F001039AB27B681A8007E07B681B88E0
:103380009BB223F001039AB27B681A800C37BD46CA
:103390005DF8047B704700BF80B483B000AF7860F5
:1033A00013460A467A807B707B78002B08D07B68B6
:1033B0009B899AB27B8813439AB27B689A8109E011
:1033C0007B689B899AB27B88DB439BB213409AB29D
:1033D0007B689A810C37BD465DF8047B704700BF5F
:1033E00080B483B000AF786013460A467A803B8091
:1033F0007B687A881A857B683A889A820C37BD4642
:103400005DF8047B704700BF80B483B000AF786084
:103410000B46FB70FB78002B08D07B681B889BB2A7
:1034200043F080039AB27B681A8007E07B681B88B0
:103430009BB223F080039AB27B681A800C37BD469A
:103440005DF8047B704700BF80B483B000AF786044
:103450000B46FB70FB78002B08D07B681B889BB267
:1034600043F002039AB27B681A8007E07B681B88EE
:103470009BB223F002039AB27B681A800C37BD46D8
:103480005DF8047B704700BF80B483B000AF786004
:103490000B467B807B88002B08D07B681B889BB207
:1034A00043F004039AB27B681A8007E07B681B88AC
:1034B0009BB223F004039AB27B681A800C37BD4696
:1034C0005DF8047B704700BF80B483B000AF7860C4
:1034D0000B467B807B681B889BB223F008039AB263
:1034E0007B681A807B681B889AB27B8813439AB2E8
:1034F0007B681A800C37BD465DF8047B704700BFBF
:1035000080B483B000AF78600B467B807B687A889C
:103510009A850C37BD465DF8047B704780B483B054
:1035200000AF78600B467B807B88DB439AB27B6878
:103530001A820C37BD465DF8047B704780B58CB0AD
:1035400000AF786039600023FB620023BB62002378
:103550007B6200233B620023FB617B68FB617B682D
:103560001B8A9BB2FB62FA6A4CF6FF731340FB6244
:103570003B68DB88FA6A1343FB62FB6A9AB27B689A
:103580001A827B689B899BB2FB62FA6A4EF6F31340
:103590001340FB623B689A883B681B8913439AB2CD
:1035A0003B685B8913439BB2FA6A1343FB62FB6A75
:1035B0009AB27B689A817B689B8A9BB2FB62FA6AAB
:1035C0004FF6FF431340FB623B689B89FA6A134343
:1035D000FB62FB6A9AB27B689A8207F1080318467D
:1035E000FFF730FDFA69304B9A4202D17B69BB622A
:1035F00001E03B69BB627B689B899BB29BB21BB2BB
:10360000002B0CDABA6A13469B0013449A001A4442
:103610003B681B685B00B2FBF3F37B620BE0BA6AAA
:1036200013469B0013449A001A443B681B689B0096
:10363000B2FBF3F37B627A6A1C4BA3FB02135B09B8
:103640001B01FB62FB6A1B09642202FB03F37A6A1B
:10365000D31A3B627B689B899BB29BB21BB2002B47
:103660000DDA3B6ADB0003F13202104BA3FB0213BD
:103670005B0903F00703FA6A1343FB620CE03B6A41
:103680001B0103F13202094BA3FB02135B0903F098
:103690000F03FA6A1343FB62FB6A9AB27B681A81D2
:1036A0003037BD4680BD00BF003801401F85EB515B
:1036B00080B483B000AF78600B46FB70FB78002BC2
:1036C00008D07B689B899BB243F400539AB27B6815
:1036D0009A8107E07B689B899BB223F400539AB2DE
:1036E0007B689A810C37BD465DF8047B704700BF4C
:1036F00080B483B000AF78600B467B807B88C3F3D7
:1037000008039AB27B689A800C37BD465DF8047B4B
:10371000704700BF80B485B000AF78600B467B80F7
:103720000023FB737B681B889AB27B8813409BB293
:10373000002B02D00123FB7301E00023FB73FB7B12
:1037400018461437BD465DF8047B704780B485B0D9
:1037500000AF78600B467B800023FB810023BB8198
:103760007B881B0AFB81FB89012202FA03F3BB81E0
:10377000BB89DB439AB27B681A801437BD465DF87B
:10378000047B704780B582B000AF154A154BD31A41
:103790009B103B6000237B6007E0124B7A6853F874
:1037A000223098477B6801337B607A683B689A4295
:1037B000F3D30D4A0D4BD31A9B103B6000237B6063
:1037C00007E00A4B7A6853F8223098477B68013348
:1037D0007B607A683B689A42F3D30837BD4680BD68
:1037E000C4020008C0020008D0020008C402000899
:1037F00080B582B000AF0B4A0B4BD31A9B103B60D5
:103800003B687B6008E07B685A1E074B53F8223008
:1038100098477B68013B7B607B68002BF3D10837BE
:10382000BD4680BDD0020008D002000880B483B03D
:1038300000AF7860FEE700BF80B500AF154B154ABA
:10384000126842F001021A60124A124B5968124B78
:103850000B4053600F4A0F4B1B6823F0847323F413
:10386000803313600B4B0B4A126822F480221A60DB
:10387000084B084A526822F4FE025A60054B4FF486
:103880001F029A6000F00CF8044B4FF000629A603F
:1038900080BD00BF001002400000FFF800ED00E016
:1038A00080B500AF00F002F880BD00BF80B483B0E7
:1038B00000AF00237B6000233B603A4B394A12681B
:1038C00042F480321A60374B1B6803F400333B60CC
:1038D0007B6801337B603B68002B03D17B68B3F5C9
:1038E000A06FF0D12F4B1B6803F40033002B02D0E4
:1038F00001233B6001E000233B603B68012B4BD17F
:10390000294B294A126842F010021A60264B264AB7
:10391000126822F003021A60234B234A126842F015
:1039200002021A601F4B1F4A52685A601D4B1D4A03
:1039300052685A601B4B1B4A526842F480625A60BC
:10394000184B184A526822F47C125A60154B154ADB
:10395000526842F4E8125A60124B124A126842F05E
:1039600080721A6000BF0F4B1B6803F00073002BBE
:10397000F9D00C4B0B4A526822F003025A60094BF3
:10398000084A526842F002025A6000BF054B5B6869
:1039900003F00C03082BF9D10C37BD465DF8047B0E
:1039A000704700BF0010024000200240014B186821
:1039B000704700BF480500200FB410B5074B82B018
:1039C00004AC54F8042B186823468168019400F075
:1039D00007F802B0BDE8104004B070474805002069
:1039E0002DE9F04FC9B01C4689460A920D9002F0AD
:1039F00065FD00680F94159003F006FD0D9D18906D
:103A00001DB1AB6B002B00F00981B9F80C2093B20B
:103A10009F040AD4D9F8641042F4005321F40051F1
:103A2000A9F80C30C9F864109BB21E0740F1C080A1
:103A3000D9F81020002A00F0BB8003F01A030A2BEB
:103A400000F0C28038ACA44608942B9400250024D2
:103A5000CDE91645002311932D932C931A931993B6
:103A6000109366460A9D2B78002B00F0DB80252BF7
:103A700000F0D8806A1C02E0252B00F08B801378C0
:103A800014460132002BF7D10A98251A7DB12C9BE0
:103A90002D9A01330A982A44072B86E821002D929B
:103AA0002C9300F3A48008361099294410912378B0
:103AB000002B00F0A4800023651C94F801804FF0D7
:103AC000FF341A468DF88F300E9309930A950B94A4
:103AD0002B460133A8F12001582900F2F483DFE8D6
:103AE00011F03802F203F2030303F203F203F203CC
:103AF000F203F203F2033F023402F20360003503E3
:103B0000F20376037D037D037D037D037D037D0347
:103B10007D037D037D03F203F203F203F203F2035C
:103B2000F203F203F203F203F20352039D03F203E2
:103B30009D03F203F203F203F2038E03F203F20396
:103B4000D003F203F203F203F203F203A302F2033F
:103B5000F203C302F203F203F203F203F203F203ED
:103B6000F203F203F203F2030A031C039D039D0315
:103B70009D03D9021C03F203F203E202F203EE02F8
:103B80000A021C024B02F2035402F203A300F203E6
:103B9000F2037B020A99651A78E70E9C0F91644242
:103BA0000E94099D45F00405099593F8008090E76F
:103BB0000D98494601F0E4F9A0B9B9F80C3003F0CA
:103BC0001A030A2B7FF43EAFB9F90E30002BFFF633
:103BD00039AF0D9849460A9A234601F093F949B046
:103BE000BDE8F08F4FF0FF3049B0BDE8F08F0D9881
:103BF00049462BAA03F074FC40B938AE54E72D9B1C
:103C000023B10D9849462BAA03F06AFCB9F80C3091
:103C10005B06E7D4109849B0BDE8F08F284602F063
:103C200087FAF2E60A9C42E7099C0A93A20640F151
:103C300006820F9DEB1D23F0070303F1080CD3E967
:103C40000045CDF83CC001234FF0000A8DF88FA04D
:103C50000B99002905DBDDF824C02CF0800CCDF891
:103C600024C054EA050040F047830B99002940F036
:103C70004383002B40F0B984DDF824C01CF0010F11
:103C800000F0B38448AF3023089D07F8413DEC1B9A
:103C9000DDF82CC000256445A8BFA446CDF830C08F
:103CA0001495BAF1000F02D00C9D01350C95099BBB
:103CB00013F00203129302D00C9D02350C95DDF82F
:103CC00024C01CF0840CCDF84CC040F012830E9D33
:103CD000DDF830C0CCEB050BBBF1000F40F30983DE
:103CE000BBF1100F2D992C9ADFF828A527DD1B9723
:103CF00010255746A2460D9C06E0ABF1100BBBF118
:103D0000100F06F1080617DD01321031072A2D9138
:103D10002C9237607560F0DD204649462BAA03F0EF
:103D2000DFFB00287FF472AFABF1100BBBF1100F7B
:103D30002D992C9A38AEE7DC5446BA461B9F0132C7
:103D40000BEB010C072ACDF8B4C02C9286E8000CCE
:103D500000F39A849DF88FA00836BAF1000F0FD0B7
:103D60002C9B0CF1010C01330DF18F010122072B6B
:103D7000CDF8B4C02C9386E8060000F31C84083606
:103D8000129B73B12C9B0CF1020C013324A902226B
:103D9000072BCDF8B4C02C9386E8060000F31884F6
:103DA0000836139D802D00F048830B9A151B002DBB
:103DB0003DDD102D2C9BDFF860A42CDD51460B94CB
:103DC000AA464FF0100B62460D9C0D4606E0AAF184
:103DD000100ABAF1100F06F1080617DD0133103290
:103DE000072B2D922C9386E82008F0DD20464946CB
:103DF0002BAA03F075FB00287FF408AFAAF1100A84
:103E0000BAF1100F2D9A2C9B38AEE7DC94460B9C30
:103E10002A46554692460133AC44072BCDF8B4C030
:103E20002C93C6F800A0756000F3B9830836099D8D
:103E3000EB0500F1A2822C9BA4440133072BCDF8A3
:103E4000B4C0376074602C9300F393830836099CE8
:103E5000620740D50E9D0C982C1A002C3BDD102CCF
:103E60002C9BDFF8B0A322DD10256246DDF83480FC
:103E7000574604E0103C102C06F1080615DD01330E
:103E80001032072B2D922C9337607560F2DD40467F
:103E900049462BAA03F024FB00287FF4B7AE103C60
:103EA000102C2D9A2C9B38AEE9DC9446BA4601338F
:103EB000A444072BCDF8B4C02C93C6F800A07460BE
:103EC00009DD0D9849462BAA03F00AFB00287FF470
:103ED0009DAEDDF8B4C0109C0C980E9DA842ACBFFE
:103EE000241864191094BCF1000F40F04E83002395
:103EF0002C9338AEB6E5DDF824C00A931CF02003FD
:103F000000F0CA810F9CE31D23F0070303F10805AD
:103F10000F95D3E90045002396E6DDF824C00F9DF8
:103F20000A930F9BB94804351C684FF0780830237A
:103F30004CF0020C0F958DF89030CDF824C0002580
:103F40008DF891801A9002237EE693F800802B2250
:103F5000BFE593F80080002A7FF4BBAD2022B8E5CE
:103F60000F9C0F9D2468291D002C0E94FFF615AEA2
:103F70000F9193F80080ACE5DDF824C04CF0200CE4
:103F8000CDF824C093F80080A3E50F9C4FF0000A01
:103F900027680A938DF88FA0251D002F00F05C86FE
:103FA0000B9C3846002CC0F207865146224602F090
:103FB00095FD002800F09C860B9CC01BA042B8BF5A
:103FC00004460F9524EAE475CDF82CA0CDF850A056
:103FD0000C959DF88FA064E6099D8C4CAF060A9362
:103FE0001A948DF88F2047D5DDF83CC00CF10703FB
:103FF00023F0070303F108040F94D3E90045DDF82B
:1040000024C01CF0010F00F0F48254EA050000F017
:10401000F08230234CF0020C8DF890308DF89180B6
:10402000CDF824C002230FE6DDF824C00A934CF03B
:10403000100CCDF824C0099CA2063FF5FAAD099CEE
:10404000E30600F13083DDF824C01CF0400F00F0DF
:104050002A83DDF83CC00025BCF800400CF1040CBC
:104060000123CDF83CC0EFE5099D694CAF060A93EA
:104070008DF88F201A94B7D4099DED0640F1C984BC
:10408000DDF83CC00025DCF800400CF1040CCDF854
:104090003CC0B4E7DDF824C04CF0400CCDF824C09F
:1040A00093F8008015E593F800801946B8F16C0F7D
:1040B00000F06D85099D45F01005099509E5DDF8CD
:1040C00024C00A931CF0200F8DF88F2000F0B084DC
:1040D0000F9C2168109CE5172B460F9D2246043546
:1040E0000F95C1E90023BDE4099D45F0010509953F
:1040F00093F80080EDE40A930F9B0F9D1A6801244A
:10410000002304359A460C948DF8B8200F958DF84D
:104110008F300B9314932EAFC9E5099C0A93A50623
:104120008DF88F203BD50F9DE91D21F00701D1E9C6
:10413000002308310F9114461D46002A73F1000C2C
:10414000C0F2CA839DF88FA0012381E593F8008017
:10415000581CB8F12A0F00F0AE86A8F130010929E9
:1041600098BF002300F20C8610F8018B03EB830349
:1041700001EB4303A8F130010929F5D943EAE373C0
:104180000B930346A6E4DDF824C00A934CF0100C10
:10419000CDF824C0099C8DF88F20A506C3D4DDF886
:1041A00024C01CF0100F40F0B082DDF824C01CF0D9
:1041B000400F00F0AA82DDF83CC0BCF900400CF1D1
:1041C000040CE51722462B46CDF83CC0B5E7099D07
:1041D00045F08005099593F800807AE40024A8F161
:1041E00030010E94204613F8018B00EB800001EBA8
:1041F0004000A8F130010929F5D90E906AE4099D23
:1042000045F00805099593F8008062E420900008C5
:104210000C90000840900008EC8F00080F9D0A9356
:10422000EB1D23F0070303F1080C8DF88F20CDF868
:104230003CC0D3E90045CDE91645DDE9160103F0A0
:1042400065F80128DDE9160140F0508300220023C3
:1042500004F022FB002840F031859DF88FA0032553
:104260000C95099D9E4F25F080059E4B00240995D5
:1042700000250B94B8F1470FD8BF1F4603241495AF
:104280000FE5099D0A9345F010050995DDF824C056
:104290001CF020037FF436AEDDF824C01CF01002C1
:1042A00040F03B82DDF824C01CF0400300F0358272
:1042B000DDF83CC01346BCF800400CF1040C0025AE
:1042C000CDF83CC0C0E40A938DF88F20B8F1000F00
:1042D0003FF495AC00234FF0010C9A46CDF830C066
:1042E0008DF8B8808DF88F300B93149364462EAF01
:1042F000DDE4DDF8B4C030E5012B00F0E380022BF3
:104300000DF1DF0318D1DDF868C0194604F00F0085
:1043100022091CF8000042EA05722B09087052EAD3
:1043200003000F4614461D4601F1FF31EED1089DF2
:10433000CDE91E23EC1BABE4E00840EA457004F035
:104340000702E908303250EA010C1F461A70044691
:104350000D4603F1FF33EFD1099CCDE91C01E007C5
:10436000394640F1B880302A00F0B580089D1F46DC
:104370003023EC1B01F8013C8AE4B8F1650F40F3EF
:10438000B780DDE9160100220023CDF81CC004F03F
:1043900079FADDF81CC0002800F02E812C9B5249D0
:1043A00001330CF1010C0122072BCDF8B4C02C9382
:1043B00086E8060000F361830836259B119CA34222
:1043C00003DB099DEF077FF542AD2C9B189C013361
:1043D000159DA444072BCDF8B4C0356074602C93B0
:1043E00000F3DE830836119D6C1E002C7FF72FAD85
:1043F000102C2C9BDFF8F4A040F398811025624626
:10440000DDF83480574604E00836103C102C40F3A9
:104410008B8101331032072B2D922C9337607560FE
:10442000F2DD404649462BAA03F05AF800287FF4F3
:10443000EDAB2D9A2C9B38AEE7E70E980C99451AF8
:10444000002D7FF7B2AC102D2C9BDFF8A0A02CDD47
:1044500051461294AA464FF0100B62460D9C0D4631
:1044600006E0AAF1100ABAF1100F06F1080617DDEE
:1044700001331032072B2D922C9386E82008F0DDB3
:10448000204649462BAA03F02BF800287FF4BEAB48
:10449000AAF1100ABAF1100F2D9A2C9B38AEE7DC66
:1044A0009446129C2A46554692460133AC44072B4B
:1044B000CDF8B4C02C93C6F800A0756000F3FF815E
:1044C000083672E4002D08BF0A2C80F03B8130349E
:1044D00048AF07F8414D089DEC1BFFF7D9BB00BF63
:1044E00000900008FC8F00083C900008EC8F00084A
:1044F000119C012C2C9C40F3A48101340CF101058A
:104500000123072C2D952C943760736000F3B48140
:1045100008361898013415990544072C2D952C94CC
:104520003160706000F3B4810836DDE916010022C5
:10453000002304F0A7F9002840F0BD80119A01344F
:10454000531E01371D44072C2C942D953760736042
:1045500000F386810836DDF864C00134AC44199D4F
:1045600027AB072CCDF8B4C02C9486E828007FF741
:104570006DAC0D9849462BAA02F0B2FF00287FF4DB
:1045800045ABDDF8B4C038AE61E40D9849462BAABE
:1045900002F0A6FF00283FF4AAACFFF737BB0D9846
:1045A00049462BAA02F09CFF00287FF42FABDDF8D0
:1045B000B4C038AE3BE40D9849462BAA02F090FFF8
:1045C00000287FF423ABDDF8B4C038AEFFF7D8BBCA
:1045D0000D9849462BAA02F083FF00287FF416AB02
:1045E000DDF8B4C038AEFFF7DCBB0B9C38AFFFF78B
:1045F0004FBB0223FFF728BB259B002B40F34982CA
:10460000119C149DDDF84480AC42A8BF2C46002CC0
:10461000B8440BDD2C9BA4440133072BCDF8B4C068
:10462000376074602C9300F3F0820836149D24EAFE
:10463000E4742C1B002C40F3AD80102C2C9BDFF875
:10464000D8A640F30D8251461025BA466246DDF8E1
:1046500034B00F4604E00836103C102C40F3FC81C7
:1046600001331032072B2D922C9337607560F2DDE9
:10467000584649462BAA02F033FF00287FF4C6AA09
:104680002D9A2C9B38AEE7E70D9849462BAA02F0ED
:1046900027FF00287FF4BAAA9DF88FA0DDF8B4C0E8
:1046A00038AEFFF75ABB0F9D01232C6804350F95D8
:1046B0000025FFF7C9BA119B5F1E002F7FF74BAF94
:1046C000102FDFF854A640F3EF804FF01008DDF80C
:1046D00034B004E00836103F102F40F3E580013479
:1046E0001035072C2D952C94C6F800A0C6F8048030
:1046F000F0DD584649462BAA02F0F2FE00287FF46E
:1047000085AA2D9D2C9C38AEE5E70F9D2C680435BD
:104710000F95E51722462B460FE50F9D2C680435B3
:104720000F950025FFF790BA9446BA460133A4448A
:10473000072BCDF8B4C02C93C6F800A074607FF7A7
:1047400085AB16E70DF1DF0B204629460A22002330
:1047500004F0F2F830328BF80020204629460A2275
:10476000002304F0E9F804460D4654EA050C5F46C0
:104770000BF1FF3BE8D1089DEC1BFFF789BA0D98C0
:1047800049462BAA02F0ACFE00287FF43FAADDF8D0
:10479000B4C038AE149D259C2F44119DAC4240DB23
:1047A000099DE8073DD41198C7EB0805041BAC42EE
:1047B000B8BF2546002D0BDD2C9BAC440133072BE5
:1047C000CDF8B4C0376075602C9300F3548208367E
:1047D00025EAE575641B002C7FF739AB102C2C9B68
:1047E000DFF834A5A2DD10256246DDF83480574697
:1047F00003E00836103C102C96DD01331032072BF5
:104800002D922C9337607560F3DD404649462BAA04
:1048100002F066FE00287FF4F9A92D9A2C9B38AE91
:10482000E8E7189D2C9BAC44159D01333560189D1D
:10483000072BCDF8B4C075602C9300F300820836C6
:10484000B1E7099DE9073FF558AE01340CF10105C8
:104850000123072C2D952C94376073607FF77AAE77
:104860000D9849462BAA02F03BFE00287FF4CEA902
:104870002D9D2C9C38AE6EE60D9849462BAA02F071
:104880002FFE00287FF4C2A92D9D2C9C38AE40E657
:104890000D9849462BAA02F023FE00287FF4B6A902
:1048A0002D9D2C9C38AE40E601343D44072C2D95BF
:1048B0002C94C6F800A077607FF74CAED0E70D9837
:1048C00049462BAA02F00CFE00287FF49FA9DDF8D0
:1048D000B4C038AEFFF769BA4FF02D0A644265EBF9
:1048E00045058DF88FA00123FFF7B2B902F00EFD48
:1048F000002800F01B810B9D28F0200A013500F0F4
:104900006C82BAF1470F04D10B9D002D08BF012521
:104910000B95DDF824C0DDE916234CF4807C002BD8
:10492000CDF848C0C0F25082DDE91645CDE92045FA
:104930004FF0000BB8F1660F00F03482B8F1460F6B
:1049400000F08C82BAF1450F0ABF0B9C0B9D651CD1
:10495000022025A926AA29AB8DE821000392049301
:1049600002910D98DDE9202300F006FCB8F1670FF5
:10497000074602D0B8F1470F05D1DDF824C01CF07E
:10498000010F00F03B82BAF1460F07EB050400F07F
:10499000A881DDE920010022002303F073FF002835
:1049A00040F09D81299B9C4206D930215A1C2992B6
:1049B0001970299B9C42F9D8DB1BBAF1470F119360
:1049C00000F07481B8F1650F40F39482B8F1660F7E
:1049D00000F00682259C1494119C149DAC4200F3B7
:1049E000D481DDF824C01CF0010F40F0538225EA89
:1049F000E5732C464FF06708BBF1000F40F064816F
:104A0000129D0C930995CDF82CB09DF88FA0FFF75F
:104A100048B9099C640640F1A680DDF83CC0002539
:104A2000BCF800400CF1040CCDF83CC0FFF7E7BA2D
:104A3000DDF824C01CF0100F40F08D80DDF824C09C
:104A40001CF0400F00F026810F9C109D2368043459
:104A50000F941D80FFF706B894463A465746924693
:104A60000133A444072BCDF8B4C02C93C6F800A0A2
:104A700074603FF784AE08368CE60D9849462BAA41
:104A800002F02EFD00287FF4C1A8DDF8B4C038AED6
:104A900093E42C9A9C4901320CF1010C0120072A65
:104AA000CDF8B4C02C923160706063DC08361C46CF
:104AB0002CB9119D1DB9099DED077FF5C8A92C9B47
:104AC000159D189A01333560189D6244072B2D926D
:104AD00075602C9300F3478108366442002C40F344
:104AE0008680102CDFF830A240F39E8051461025BE
:104AF000BA46DDF834800F4604E00836103C102C2E
:104B000040F38F8001331032072B2D922C933760A6
:104B10007560F2DD404649462BAA02F0E1FC002810
:104B20007FF474A82D9A2C9B38AEE7E7099C774F49
:104B3000774B4FF0030C24F0800409940B90CDF8D0
:104B400030C01490B8F1470FD8BF1F4664469DF897
:104B50008FA0FFF7A6B80F9C109D236804340F9414
:104B60001D60FEF77FBF0F9D2C6804350F95002553
:104B7000FFF745BA0D9849462BAA02F0B1FC002870
:104B80007FF444A8259CDDF8B4C038AE90E7099CBA
:104B9000013344F02004099491F80180FEF799BF95
:104BA0000D9849462BAA02F09BFC00287FF42EA802
:104BB000DDF8B4C038AE16E4CDF82CA002F024FC29
:104BC0000F950B9D20EAE07C0446CDF830C014958B
:104BD0009DF88FA0FFF765B80D9849462BAA02F003
:104BE0007FFC00287FF412A82D9A2C9B38AEDDF8AC
:104BF00044C00133119C9444072BCDF8B4C02C93CE
:104C0000376074607FF722A9B3E40D9849462BAA58
:104C100002F066FC00287EF4F9AFDDF8B4C038AECF
:104C200004E5394657468A4601332244072B2D9224
:104C30002C93C6F800A07460CEDC0836D7E70D9838
:104C400049462BAA02F04CFC00287EF4DFAF259CDD
:104C5000DDF8B4C038AEA6E50B9CBA46062C28BFDA
:104C6000062424EAE47C0B9714970F95CDF830C006
:104C7000284FFFF716B80D9849462BAA02F030FCD2
:104C800000287EF4C3AF259C1199DDF8B4C00C1B3D
:104C900038AE9DE5DDF83CC0109CDCF800300CF12E
:104CA000040CCDF83CC01C60FEF7DCBE259BDC1C70
:104CB00034DB0B9C9C4231DB14938DE64FF02D0AC4
:104CC0008DF88FA0FFF7CBBA129D4FF02D0A0995F2
:104CD00000250C938DF88FA00B95FEF7E5BF2346BA
:104CE0006AE63B78302B00F0C080259D2C4450E6CE
:104CF00024EAE47CCDF830C00B9C0F950B90149007
:104D00009DF88FA0FEF7CDBF3C90000808900008EA
:104D10000490000834900008EC8F0008A8F1020805
:104D2000591E00292591BABF49422D232B23092959
:104D30008DF89C808DF89D3062DC302330318DF809
:104D40009E308DF89F1028AB119D27AA119C9A1AAE
:104D5000012D1992144440F3A4800134002524EA63
:104D6000E473149548E60D9849462BAA02F0B8FB67
:104D700000287EF44BAF259C2D9A2C9B38AEACE6D8
:104D8000002403460B94FEF7A5BE149C119D002C35
:104D9000D4BFC4F1020401242C4424EAE4734FF08C
:104DA000670829E60B9C032025A926AA29AB0194B4
:104DB00000900392049302910D98DDE9202300F006
:104DC000DBF90B9D0746DEE51799169801F10041C6
:104DD000209021914FF02D0BACE506240B9498E523
:104DE000259D0B9C002D149578DD002C4BD1099D41
:104DF000E80748D4149C24EAE473FDE5299BDBE52D
:104E00000DF1AA023E4DCB1785FB0150C3EBA0006C
:104E100000EB8003A1EB43010928134601F13002A6
:104E20001A70014603F1FF32ECDC00F130010DF1A4
:104E3000AB04C9B2944203F8011C5DD90DF19D0089
:104E40001A4601E012F8011BA24200F8011FF9D135
:104E50000DF5907CC3EB4C03F63B75E70B9D0320EF
:104E600025A926AA29AB0195A2E7DDE920010022A8
:104E7000002303F007FD00287FF437AFC5F10105DB
:104E800025952C4485E50B9D6C1C149D2C4424EA2F
:104E9000E473B1E5149D4FF067086C1C24EAE473D9
:104EA000AAE5DDF824C01CF001037FF456AF14938B
:104EB00024EAE473A0E50F9DDDF83CC02D680CF1F9
:104EC0000401002D93F801800B950F910346BEF667
:104ED00000AE4FF0FF340B94FEF7FBBD2CB9099DDB
:104EE000E90702D401231C4686E50B9DAC1C24EA8D
:104EF000E47381E5259B13E70DF19E0324E700BFD2
:104F0000676666662DE9F0474F6EADF58D6D884694
:104F10001997D8F81C70B1F80CA0B1F80E9007974B
:104F2000D8F824701AAC4FF480652AF0020A0026E3
:104F300069460094049402950595ADF80CA0ADF86F
:104F40000E90099706960546FEF74AFD041E07DBFC
:104F50002846694601F0D0F8B04218BF4FF0FF3440
:104F6000BDF80C305B0605D5B8F80C3043F04003B3
:104F7000A8F80C3020460DF58D6DBDE8F08700BF18
:104F80002F4B70B5064618680C4610B1826B002A8C
:104F900036D0A589ABB219070CD52269AAB113F096
:104FA00001011ED0636900215B42A361A160F2B1DF
:104FB000002070BDDA063AD55B0724D4226945F09B
:104FC0000803A3819BB2002AE9D103F42071B1F553
:104FD000007FE4D03046214601F074FAA3892269AB
:104FE000DDE7980758BF6169A160002AE0D1A38975
:104FF0001A06DDD543F04003A3814FF0FF3070BDAA
:1050000001F096F8C5E7216B49B104F140039942DC
:1050100003D0304601F058F9A589002323632269A3
:1050200025F024050021ADB222606160C7E745F09C
:105030004005092333604FF0FF30A58170BD00BFEC
:10504000480500202DE9F04F03690D6983B09D42AA
:10505000834600F38C80013D01F1140400F1140A31
:1050600054F825205AF825300132B3FBF2F8AA0093
:10507000914600925244A1440192B8F1000F3ED0F3
:1050800000263046224653468C4652F8047B196867
:105090001FFA87FE3F0C0EFB086E07FB08F606EBB7
:1050A0001E461FFA8EFECEEB000E8FB2B0B27744D2
:1050B000C0EB114000EB2740BFB247EA00479145E3
:1050C00043F8047B4FEA20404FEA1646DDD2009AAF
:1050D00061465AF8023093B9019A131F9A450CD2CF
:1050E00052F8043C4BB9A2F1080302E01A68043BF1
:1050F0001AB99A4505F1FF35F8D3CBF81050584648
:1051000002F016F800282EDB08F1010853460022B1
:1051100054F8046B1868B1B2511A87B2360C39448E
:10512000C6EB104000EB214289B241EA0241A145A1
:1051300043F8041B4FEA2242EAD25AF825200AEB30
:10514000850382B91A1F92450BD253F8042C42B939
:10515000083B02E01A68043B1AB99A4505F1FF358D
:10516000F8D3CBF81050404603B0BDE8F08F0020D4
:1051700003B0BDE8F08F00BF2DE9F04F016C9BB08C
:10518000044692469B46279D41B1436C01229A40BA
:105190004B608A6001F0D6FD00232364BBF1000F51
:1051A000D94633DB00232B60A54B1A4609EA0303DB
:1051B000934214D0504659460022002303F062FB6C
:1051C000804648B3269E289D01233360002D00F0C1
:1051D000CA809C48286001381BB0BDE8F08F269D2E
:1051E00042F20F732B60BAF1000F00F0A5809648D1
:1051F000289E002EF0D0C378002B00F0B68000F17E
:105200000803289D2B601BB0BDE8F08F01232BF015
:1052100000492B60CB46C7E719AA18AB8DE80C00F4
:10522000204652465B4602F013F85FEA19550A9091
:1052300040F08B80189F199D6FF482633D449D421E
:10524000C0F295821F3305F212425B1B09FA03F389
:105250002AFA02F243EA020003F036F80126013D81
:10526000B846A1F1F87116960022784B02F0EEFED6
:105270006DA3D3E9002303F09DF86DA3D3E90023C8
:1052800002F0E6FE064628460F4603F02DF86AA314
:10529000D3E9002303F08EF802460B463046394628
:1052A00002F0D6FE06460F4603F01EFB3946079075
:1052B00000223046002303F0EFFA002840F0298254
:1052C000079E162E00F222826149524601EBC6016A
:1052D0005B46D1E9000103F0FDFA002800F04C82A2
:1052E000013E079600260E96C5EB0805013D069582
:1052F00000F1268200250895079E002EC0F2178235
:10530000069D0D963544002606950C96249D092D84
:105310002DD8052DC4BF043D2495249EC8BF00256B
:10532000A6F10203D8BF0125032B22D8DFE813F032
:10533000B7039E02C0039A04464A434BC9F31300C5
:1053400000280CBF1046184652E7CBF3130343F076
:105350007F51CDF858805046A5F2FF3541F44011F9
:10536000DDF8608080E73C4836E7C31C49E700254C
:105370002495002565642946204601F0BDFC4FF0C8
:10538000FF390126099025952064CDF83C900B96B5
:10539000199B002BC0F2D280079E0E2E00F3CE8008
:1053A0002B4B03EBC603D3E90001CDE9040125999A
:1053B0000029C0F28083DDE904235946504603F0FA
:1053C00023F903F091FA054602F08EFFDDE904238C
:1053D00002F0F0FF02460B465046594602F036FEF8
:1053E000099A05F13003B9F1010F06460F46137013
:1053F00002F1010B64D00022184B02F0DBFF002207
:10540000002306460F4603F03DFA002840F0818055
:10541000DDF82480099DC844DDE904AB05F10209EB
:10542000039428E0AFF3008061436F63A787D23F06
:10543000B3C8608B288AC63FFB799F501344D33F83
:105440000000F07F3D9000085C9000080000F83FED
:1054500078900008509000083C900008000024401C
:1054600002F0A8FF0022002306460F4603F00AFAC6
:10547000002840F0C18352465B463046394603F06F
:10548000C3F803F031FA054602F02EFF52465B46A0
:1054900002F090FF02460B463046394602F0D6FD38
:1054A00005F1300EC14509F801EC4C4606460F46A1
:1054B0004FF00002A74B09F10109D1D1A346039C8B
:1054C00032463B463046394602F0C2FD06460F469C
:1054D0003246DDE904013B4603F0DEF940B9DDE97F
:1054E000040132463B4603F0CDF990B1EB0710D5ED
:1054F0001BF8015C099A05E09A4200F0298413F830
:10550000015C9B46392D0BF1FF33F5D06A1CD2B2FA
:105510001A7020460A9901F015FC079E269D731CFF
:10552000289E00228BF800202B60002E00F025839F
:105530000998C6F800B01BB0BDE8F08F0B9D002D98
:1055400000F00381249E012E40F3DC820C9E09F1C1
:10555000FF37BE42C0F28983F71BB9F1000FC0F2DA
:105560008784089D4B46089E20461E440896069E4A
:1055700001211E44069601F087FC064665B1069897
:10558000002809DD03460899AB42A8BF2B46C91A7B
:10559000C01A0891ED1A06900C9A002A1DDD0B9B8B
:1055A000002B00F05883002F11DD31463A4620468B
:1055B00001F012FD064631460A9A204601F06EFCC3
:1055C0000A998046204601F0BDFBCDF82880DDF821
:1055D00030E0BEEB070240F08F822046012101F04F
:1055E00053FC80460D98002805DD414620460D9A63
:1055F00001F0F2FC80462499012940F3C182002782
:105600000D98002840F0AF820120069B034413F060
:105610001F0300F0A180C3F12002042A40F3B784E5
:105620000899069AC3F11C0319441A4408911D44B1
:1056300006920899002905DD0A99089A204601F08A
:1056400019FD0A90069A002A04DD4146204601F021
:1056500011FD80460E9B002B40F06A82B9F1000FCD
:1056600040F3A6820B98002840F088800B9D0A9F8B
:10567000DDF824B006E0394620460A22002301F076
:105680006BFB074638464146FFF7DCFC30300BF831
:1056900005000135A945EEDCDDF824B082460A9705
:1056A000B9F1010FACBFCB440BF1010B00250A99F6
:1056B0000122204601F0DEFC41460A9001F038FD4F
:1056C000002840F309831BF8012C099905E0994251
:1056D00000F08B8213F8012C9B46392A0BF1FF3323
:1056E000F5D001321A704146204601F02BFB002E06
:1056F0003FF40FAF2DB1B54203D02946204601F04B
:1057000021FB3146204601F01DFB02E701260E96E3
:10571000EAE5079802F0E8FD32463B4603F0B2F8AE
:1057200000287FF4CDAD079E013E0796C8E5079E91
:10573000089DAD1B0895754200260C950D96E5E574
:105740006D42002608950696D6E50C9F089D0B9E97
:1057500014E700BF000024401C23DDF820E0069879
:105760009E441844CDF820E01D44069061E7A74808
:10577000401B0AFA00F06FE50E90B5E5002D05DD3F
:1057800031462A46204601F075FC0646002F40F0BF
:10579000E9823746099D09984D4408950AF00105AC
:1057A0000B95DDF82890451C0AE001F0D5FA394642
:1057B00006460A222046002301F0CEFA07460135AC
:1057C00041464846FFF73EFC31468346484601F0D5
:1057D000AFFC414603903A46204601F0CDFCC2683A
:1057E000691E03460BF1300A0691002A40F09381AE
:1057F00019464846029301F09BFC029B024619465B
:105800002046029201F09EFA029A2AB9249B1BB903
:105810000B98002800F09383039B002BC0F2348286
:1058200005D1249818B90B99002900F02D82002A7F
:1058300000F3AC82DDF820E005F801AC7545AB461D
:1058400000F0B48249460A220023204601F084FA7F
:10585000BE428146314620464FF00A024FF0000317
:10586000A3D101F079FA06460746A8E700260B9671
:10587000079EDDF894E0B6440EF10109B9F1000F7E
:10588000CDF83CE04E4640F350810021172E616474
:105890000AD9012204235B0003F11400B04211462F
:1058A00002F10102F7D96164204601F025FA0E2EBB
:1058B000099020643FF66CAD002D3FF469AD079D63
:1058C000CDE912AB002D40F31C82514B05F00F02C5
:1058D00003EBC2032D11D3E90067EB0640F1CD8144
:1058E0004C4B50465946D3E9082302F08DFECDE9D2
:1058F000100105F00F054FF003088DB1DFF814A17A
:1059000030463946EE0705D5DAE9002308F10108EB
:1059100002F050FD6D100AF1080AF3D106460F4659
:10592000DDE9100132463B4602F06EFE82468B46B0
:105930000E9D45B1504659460022374B02F0ACFF50
:10594000002840F0AA82404602F0CEFC52465B4658
:1059500002F030FD0022314B02F07AFB0646A1F145
:105960005077B9F1000F00F05A81079DC84617958E
:105970000B9D002D00F02382254B002003EBC80374
:1059800053E90223264902F03FFE32463B4602F02D
:105990005DFBCDE910015946504602F0A5FF0546D2
:1059A00002F0A2FC02460B465046594602F04EFB5E
:1059B0003035099ECDE90401DDE90423DDE910015C
:1059C000EDB2357006F1010B02F084FF002840F0C3
:1059D000AB82DDE9042300200F4902F037FB0246C9
:1059E0000B46DDE9100102F075FF002840F0A282AD
:1059F000B8F1010F40F38181B044CDF85090A24638
:105A0000C146DDE90467DDE9104519E0EEFBFFFF63
:105A100078900008409100080000F03F00001C4012
:105A20000000E03F0020A84902F010FB22462B4670
:105A300002F032FF002840F07B82CB4500F05A8113
:105A4000204629460022A14B02F0B4FC00229F4BC5
:105A500004460D463046394602F0ACFC0F46064679
:105A600002F042FF804602F03FFC02460B46304601
:105A7000394602F0EBFA08F130085FFA88F822465E
:105A80002B460BF8018B06460F4602F005FF324607
:105A90003B460028C6D0179E5446079639E5002697
:105AA0000B96259800283CDD06460F908146ECE6D3
:105AB00001260B96F5E7B9F1000F3FF77CAC40F0FB
:105AC000C680DDE904010022814B02F073FC5246DE
:105AD0005B4602F0F5FEC8464E4600287CD0259D68
